{
  "contractName": "Ghost",
  "abi": [
    {
      "constant": true,
      "inputs": [
        {
          "components": [
            {
              "name": "playerAddrs",
              "type": "address[2]"
            },
            {
              "name": "scores",
              "type": "uint256[2]"
            },
            {
              "name": "currentWord",
              "type": "uint256[25]"
            },
            {
              "name": "currentWordLength",
              "type": "uint256"
            },
            {
              "name": "currentCommitHash",
              "type": "bytes32"
            },
            {
              "name": "turnNum",
              "type": "uint256"
            },
            {
              "name": "fullWordChallengeInProgress",
              "type": "bool"
            },
            {
              "name": "projectedWordChallendgeInProgress",
              "type": "bool"
            }
          ],
          "name": "state",
          "type": "tuple"
        },
        {
          "components": [
            {
              "name": "actionType",
              "type": "uint8"
            },
            {
              "name": "letter",
              "type": "uint256"
            },
            {
              "name": "wordCommitHash",
              "type": "bytes32"
            },
            {
              "name": "dispute",
              "type": "bool"
            },
            {
              "name": "secretWord",
              "type": "uint256[25]"
            },
            {
              "name": "secretWordSalt",
              "type": "bytes32"
            },
            {
              "name": "merkleProof",
              "type": "bytes32[]"
            },
            {
              "name": "fullWordChallengeInProgress",
              "type": "bool"
            },
            {
              "name": "projectedWordChallendgeInProgress",
              "type": "bool"
            }
          ],
          "name": "action",
          "type": "tuple"
        }
      ],
      "name": "applyAction",
      "outputs": [
        {
          "name": "",
          "type": "bytes"
        }
      ],
      "payable": false,
      "stateMutability": "pure",
      "type": "function"
    },
    {
      "constant": true,
      "inputs": [
        {
          "components": [
            {
              "name": "playerAddrs",
              "type": "address[2]"
            },
            {
              "name": "scores",
              "type": "uint256[2]"
            },
            {
              "name": "currentWord",
              "type": "uint256[25]"
            },
            {
              "name": "currentWordLength",
              "type": "uint256"
            },
            {
              "name": "currentCommitHash",
              "type": "bytes32"
            },
            {
              "name": "turnNum",
              "type": "uint256"
            },
            {
              "name": "fullWordChallengeInProgress",
              "type": "bool"
            },
            {
              "name": "projectedWordChallendgeInProgress",
              "type": "bool"
            }
          ],
          "name": "state",
          "type": "tuple"
        }
      ],
      "name": "isStateTerminal",
      "outputs": [
        {
          "name": "",
          "type": "bool"
        }
      ],
      "payable": false,
      "stateMutability": "pure",
      "type": "function"
    },
    {
      "constant": true,
      "inputs": [
        {
          "components": [
            {
              "name": "playerAddrs",
              "type": "address[2]"
            },
            {
              "name": "scores",
              "type": "uint256[2]"
            },
            {
              "name": "currentWord",
              "type": "uint256[25]"
            },
            {
              "name": "currentWordLength",
              "type": "uint256"
            },
            {
              "name": "currentCommitHash",
              "type": "bytes32"
            },
            {
              "name": "turnNum",
              "type": "uint256"
            },
            {
              "name": "fullWordChallengeInProgress",
              "type": "bool"
            },
            {
              "name": "projectedWordChallendgeInProgress",
              "type": "bool"
            }
          ],
          "name": "state",
          "type": "tuple"
        }
      ],
      "name": "getTurnTaker",
      "outputs": [
        {
          "name": "",
          "type": "uint256"
        }
      ],
      "payable": false,
      "stateMutability": "pure",
      "type": "function"
    }
  ],
  "bytecode": "0x608060405234801561001057600080fd5b506112a9806100206000396000f300608060405260043610610057576000357c0100000000000000000000000000000000000000000000000000000000900463ffffffff168063693eae7c1461005c5780638aadaccc14610099578063f0184701146100d6575b600080fd5b34801561006857600080fd5b50610083600480360361007e9190810190610d78565b610113565b604051610090919061104b565b60405180910390f35b3480156100a557600080fd5b506100c060048036036100bb9190810190610da2565b61012d565b6040516100cd919061100d565b60405180910390f35b3480156100e257600080fd5b506100fd60048036036100f89190810190610d78565b61028d565b60405161010a9190610ff2565b60405180910390f35b600060028260a0015181151561012557fe5b069050919050565b6060610137610880565b6001600481111561014457fe5b8360000151600481111561015457fe5b141561016a57610163846102d3565b9050610264565b6000600481111561017757fe5b8360000151600481111561018757fe5b14156101a7576101a08484602001518560400151610312565b9050610252565b600260048111156101b457fe5b836000015160048111156101c457fe5b14156101df576101d8848460c00151610392565b9050610251565b600360048111156101ec57fe5b836000015160048111156101fc57fe5b14156102125761020b846103e8565b9050610250565b60048081111561021e57fe5b8360000151600481111561022e57fe5b141561024f5761024c848460c0015185608001518660a00151610427565b90505b5b5b5b60018160a00181815101915081815250505b80604051602001610275919061102f565b60405160208183030381529060405291505092915050565b60006005826020015160006002811015156102a457fe5b602002015114806102cc57506005826020015160016002811015156102c557fe5b6020020151145b9050919050565b6102db610880565b818060c001511580156102f057508060e00151155b15156102f857fe5b60018360c001901515908115158152505082915050919050565b61031a610880565b6000848060c0015115801561033157508060e00151155b151561033957fe5b61034285610546565b8386608001906000191690816000191681525050600186606001510191508486604001518360198110151561037357fe5b6020020181815250508186606001818152505085925050509392505050565b61039a610880565b6103a2610880565b8360c0015115156103af57fe5b6103bd846040015184610563565b156103d2576103cb8461074c565b90506103de565b6103db8461078f565b90505b8091505092915050565b6103f0610880565b818060c0015115801561040557508060e00151155b151561040d57fe5b60018360e001901515908115158152505082915050919050565b61042f610880565b60008560e00151151561043e57fe5b83836040516020018083601960200280838360005b8381101561046e578082015181840152602081019050610453565b505050509050018260001916600019168152602001925050506040516020818303038152906040526040518082805190602001908083835b6020831015156104cb57805182526020820191506020810190506020830392506104a6565b6001836020036101000a03801982511681845116808217855250505050505090500191505060405180910390209050856080015160001916816000191614158061051c575061051a8486610563565b155b156105315761052a8661078f565b915061053d565b61053a8661074c565b91505b50949350505050565b606181101580156105585750607a8111155b151561056057fe5b50565b600080600080600060126001029350866040518082601960200280838360005b8381101561059e578082015181840152602081019050610583565b5050505090500191505060405180910390209250600091505b85518210156107355785828151811015156105ce57fe5b90602001906020020151905080600019168360001916101561068b5782816040516020018083600019166000191681526020018260001916600019168152602001925050506040516020818303038152906040526040518082805190602001908083835b6020831015156106575780518252602082019150602081019050602083039250610632565b6001836020036101000a03801982511681845116808217855250505050505090500191505060405180910390209250610728565b80836040516020018083600019166000191681526020018260001916600019168152602001925050506040516020818303038152906040526040518082805190602001908083835b6020831015156106f857805182526020820191506020810190506020830392506106d3565b6001836020036101000a038019825116818451168082178552505050505050905001915050604051809103902092505b81806001019250506105b7565b836000191683600019161494505050505092915050565b610754610880565b6001826020015161076484610113565b60028110151561077057fe5b602002018181510191508181525050610788826107e1565b9050919050565b610797610880565b60018260200151600260016107ab86610113565b018115156107b557fe5b066002811015156107c257fe5b6020020181815101915081815250506107da826107e1565b9050919050565b6107e9610880565b6107f16108df565b80836040018190525060008360800190600019169081600019168152505060008360c001901515908115158152505060008360e001901515908115158152505060028360200151600160028110151561084657fe5b60200201518460200151600060028110151561085e57fe5b60200201510181151561086d57fe5b068360a001818152505082915050919050565b61044060405190810160405280610895610903565b81526020016108a2610925565b81526020016108af610947565b81526020016000815260200160008019168152602001600081526020016000151581526020016000151581525090565b61032060405190810160405280601990602082028038833980820191505090505090565b6040805190810160405280600290602082028038833980820191505090505090565b6040805190810160405280600290602082028038833980820191505090505090565b61032060405190810160405280601990602082028038833980820191505090505090565b600061097782356111d2565b905092915050565b600082601f830112151561099257600080fd5b60026109a56109a082611093565b611066565b915081838560208402820111156109bb57600080fd5b60005b838110156109eb57816109d1888261096b565b8452602084019350602083019250506001810190506109be565b5050505092915050565b600082601f8301121515610a0857600080fd5b8135610a1b610a16826110b5565b611066565b91508181835260208401935060208101905083856020840282011115610a4057600080fd5b60005b83811015610a705781610a568882610b7a565b845260208401935060208301925050600181019050610a43565b5050505092915050565b600082601f8301121515610a8d57600080fd5b6019610aa0610a9b826110dd565b611066565b91508183856020840282011115610ab657600080fd5b60005b83811015610ae65781610acc8882610d64565b845260208401935060208301925050600181019050610ab9565b5050505092915050565b600082601f8301121515610b0357600080fd5b6002610b16610b11826110ff565b611066565b91508183856020840282011115610b2c57600080fd5b60005b83811015610b5c5781610b428882610d64565b845260208401935060208301925050600181019050610b2f565b5050505092915050565b6000610b7282356111f2565b905092915050565b6000610b8682356111fe565b905092915050565b6000610b9a8235611208565b905092915050565b60006104208284031215610bb557600080fd5b610bc0610120611066565b90506000610bd084828501610b8e565b6000830152506020610be484828501610d64565b6020830152506040610bf884828501610b7a565b6040830152506060610c0c84828501610b66565b6060830152506080610c2084828501610a7a565b6080830152506103a0610c3584828501610b7a565b60a0830152506103c082013567ffffffffffffffff811115610c5657600080fd5b610c62848285016109f5565b60c0830152506103e0610c7784828501610b66565b60e083015250610400610c8c84828501610b66565b6101008301525092915050565b60006104408284031215610cac57600080fd5b610cb7610100611066565b90506000610cc78482850161097f565b6000830152506040610cdb84828501610af0565b6020830152506080610cef84828501610a7a565b6040830152506103a0610d0484828501610d64565b6060830152506103c0610d1984828501610b7a565b6080830152506103e0610d2e84828501610d64565b60a083015250610400610d4384828501610b66565b60c083015250610420610d5884828501610b66565b60e08301525092915050565b6000610d708235611221565b905092915050565b60006104408284031215610d8b57600080fd5b6000610d9984828501610c99565b91505092915050565b6000806104608385031215610db657600080fd5b6000610dc485828601610c99565b92505061044083013567ffffffffffffffff811115610de257600080fd5b610dee85828601610ba2565b9150509250929050565b610e0181611192565b82525050565b610e108161113f565b610e1982611121565b60005b82811015610e4b57610e2f858351610df8565b610e388261116b565b9150602085019450600181019050610e1c565b5050505050565b610e5b8161114a565b610e648261112b565b60005b82811015610e9657610e7a858351610fe3565b610e8382611178565b9150602085019450600181019050610e67565b5050505050565b610ea681611155565b610eaf82611135565b60005b82811015610ee157610ec5858351610fe3565b610ece82611185565b9150602085019450600181019050610eb2565b5050505050565b610ef1816111b2565b82525050565b610f00816111be565b82525050565b6000610f1182611160565b808452610f2581602086016020860161122b565b610f2e8161125e565b602085010191505092915050565b61044082016000820151610f536000850182610e07565b506020820151610f666040850182610e9d565b506040820151610f796080850182610e52565b506060820151610f8d6103a0850182610fe3565b506080820151610fa16103c0850182610ef7565b5060a0820151610fb56103e0850182610fe3565b5060c0820151610fc9610400850182610ee8565b5060e0820151610fdd610420850182610ee8565b50505050565b610fec816111c8565b82525050565b60006020820190506110076000830184610ee8565b92915050565b600060208201905081810360008301526110278184610f06565b905092915050565b6000610440820190506110456000830184610f3c565b92915050565b60006020820190506110606000830184610fe3565b92915050565b6000604051905081810181811067ffffffffffffffff8211171561108957600080fd5b8060405250919050565b600067ffffffffffffffff8211156110aa57600080fd5b602082029050919050565b600067ffffffffffffffff8211156110cc57600080fd5b602082029050602081019050919050565b600067ffffffffffffffff8211156110f457600080fd5b602082029050919050565b600067ffffffffffffffff82111561111657600080fd5b602082029050919050565b6000819050919050565b6000819050919050565b6000819050919050565b600060029050919050565b600060199050919050565b600060029050919050565b600081519050919050565b6000602082019050919050565b6000602082019050919050565b6000602082019050919050565b600073ffffffffffffffffffffffffffffffffffffffff82169050919050565b60008115159050919050565b6000819050919050565b6000819050919050565b600073ffffffffffffffffffffffffffffffffffffffff82169050919050565b60008115159050919050565b6000819050919050565b600060058210151561121957600080fd5b819050919050565b6000819050919050565b60005b8381101561124957808201518184015260208101905061122e565b83811115611258576000848401525b50505050565b6000601f19601f83011690509190505600a265627a7a72305820090ff62cd6d26d745d7424f1f064ea3e463e714e8d14dd2013dc8ecb5904c0a16c6578706572696d656e74616cf50037",
  "source": "pragma solidity 0.4.23;\npragma experimental \"ABIEncoderV2\";\n\n// import \"./Transfer.sol\";\n\n\ncontract Ghost {\n    // aka, \"The Other Ghost Protocol\"\n\n\n    enum ActionType {\n        SUBMIT_LETTER,\n        // same player goes twice in a row:\n        CHALLENGE_FULL_WORD,\n        PROVE_FULL_WORD,\n\n        CHALLENGE_PROJECTED_WORD,\n        REVEAL_AND_PROVE_PROJECTED_WORD\n    }\n\n    struct Action {\n        ActionType actionType;\n        uint letter;\n        bytes32 wordCommitHash;\n        // i.e., whether you want to dispute the challenge or just concede, FOR REVEAL_AND_PROVE_PROJECTED_WORD\n        bool dispute;\n        uint[25] secretWord;\n        bytes32 secretWordSalt;\n        bytes32[] merkleProof;\n        // TODO rename these...\n        bool fullWordChallengeInProgress;\n        bool projectedWordChallendgeInProgress;\n    }\n\n    struct AppState {\n        // is the framework opinionated about this?\n        address[2] playerAddrs;\n        uint[2] scores;\n        uint[25] currentWord;\n        uint currentWordLength;\n        // only need the latest (i.e., can't challenge old words)\n        bytes32 currentCommitHash;\n        uint256 turnNum;\n        bool fullWordChallengeInProgress;\n        bool projectedWordChallendgeInProgress;\n\n    }\n    //(placeholder atm)\n    bytes32 constant allWordsMerkleRoot= 0x12;\n\n\n    function applyAction(AppState state, Action action)\n    public\n    pure\n    returns (bytes)\n  {\n    AppState memory postState;\n    // turn doesn't update for CHALLENGE_FULL_WORD:\n     if (action.actionType == ActionType.CHALLENGE_FULL_WORD) {\n      postState = challengeFullWord(state);\n    } else {\n        \n        if (action.actionType == ActionType.SUBMIT_LETTER) {\n            postState = submitLetter(state, action.letter, action.wordCommitHash);\n        } else if(action.actionType == ActionType.PROVE_FULL_WORD){\n            postState = proveFullWord(state, action.merkleProof);\n        } else if (action.actionType == ActionType.CHALLENGE_PROJECTED_WORD){\n            postState = challengeProjectedWord(state);\n        } else if (action.actionType == ActionType.REVEAL_AND_PROVE_PROJECTED_WORD){\n            postState = proveProjectedWord(state, action.merkleProof, action.secretWord, action.secretWordSalt);\n        }\n        postState.turnNum += 1;\n    }\n    return abi.encode(postState);\n  }\n\n\n    function isStateTerminal(AppState state)\n        public\n        pure\n        returns (bool){\n            return state.scores[0] == 5 || state.scores[1] == 5;\n        }\n    \n    // Q: is this required?\n    function getTurnTaker(AppState state)\n        public\n        pure\n        returns (uint256)\n    {\n        return state.turnNum % 2;\n    }\n\n    function submitLetter(AppState state, uint letter, bytes32 wordCommitHash)\n        internal\n        pure \n        assertNoChallenge(state)\n        returns (AppState) {\n            withinAsciiRange(letter);\n            state.currentCommitHash = wordCommitHash;\n            uint256 newIndex = state.currentWordLength + 1;\n            state.currentWord[newIndex] = letter;\n        \n            state.currentWordLength = newIndex;\n            return state;\n        }\n\n    function challengeFullWord(AppState state)\n        internal\n        pure \n        assertNoChallenge(state)\n        returns (AppState){\n            state.fullWordChallengeInProgress = true;\n            return state;\n        }\n    function proveFullWord(AppState state, bytes32[] merkleProof)\n        internal\n        pure\n        returns (AppState)\n        {\n        AppState memory postState;\n        assert(state.fullWordChallengeInProgress);\n        // TODO get just world itsef as uint[]\n        if (merkleVerify( state.currentWord, merkleProof)){\n            postState = currentPlayerWinsRound(state);\n        } else {\n            postState = otherPlayerWinsRound(state);\n        }\n        return postState;\n    }\n    \n\n    function challengeProjectedWord(AppState state)\n        internal\n        pure\n        assertNoChallenge(state)\n        returns(AppState){\n            state.projectedWordChallendgeInProgress = true;\n            return state;\n        }\n    function proveProjectedWord(AppState state, bytes32[] merkleProof, uint[25] secretWord, bytes32 secretWordSalt)\n        internal\n        pure\n        returns(AppState)\n        {\n        assert(state.projectedWordChallendgeInProgress);\n        bytes32 generatedHash = keccak256(abi.encodePacked(secretWord, secretWordSalt));\n        // check that secret stats with right letters, via string slicing:\n        if (generatedHash != state.currentCommitHash || !merkleVerify(secretWord, merkleProof) ){\n            return otherPlayerWinsRound(state);\n        } else {\n            return currentPlayerWinsRound(state);\n        }\n    }\n    \n    function currentPlayerWinsRound(AppState state)\n        internal\n        pure\n        returns(AppState)\n    {\n     state.scores[getTurnTaker(state)] += 1;\n     return startNewRound(state);   \n    }\n\n    function otherPlayerWinsRound(AppState state)\n        internal\n        pure\n        returns(AppState)\n    {\n     state.scores[ (getTurnTaker(state) + 1) % 2 ] += 1;\n     return startNewRound(state);   \n    }\n\n    function startNewRound(AppState state)\n        internal\n        pure\n        returns (AppState){\n            uint[25] memory newArr;\n            state.currentWord = newArr;\n            state.currentCommitHash =\"\";\n            state.fullWordChallengeInProgress = false;\n            state.projectedWordChallendgeInProgress = false;\n            // alternate starting player each round\n            state.turnNum = (state.scores[0] + state.scores[1]) % 2;\n            return state;\n        }\n\n    // incorporated from https://github.com/omisego/plasma-contracts/blob/master/contracts/Merkle.sol\n    function merkleVerify(uint[25] content, bytes32[] proof)\n        internal\n        pure \n        returns (bool){\n            bytes32 root = allWordsMerkleRoot;\n            // eencodePacked?\n            bytes32 computedHash = keccak256(content);\n        for (uint256 i = 0; i < proof.length; i++) {\n        bytes32 proofElement = proof[i];\n\n        if (computedHash < proofElement) {\n          // Hash(current computed hash + current element of the proof)\n          computedHash = keccak256(abi.encodePacked(computedHash, proofElement));\n        } else {\n          // Hash(current element of the proof + current computed hash)\n          computedHash = keccak256(abi.encodePacked(proofElement, computedHash));\n        }\n      }\n\n      // Check if the computed hash (root) is equal to the provided root\n      return computedHash == root;\n    }\n       \n     modifier assertNoChallenge(AppState state) {\n        assert(!state.fullWordChallengeInProgress && !state.projectedWordChallendgeInProgress);\n        _;\n         \n     }\n     \n     function withinAsciiRange(uint num) pure internal {\n         assert(num >= 97 && num <=122 );\n     }\n\n// TODO: understand resolve\n//   function resolve(AppState state, Transfer.Terms terms)\n//     public\n//     pure\n//     returns (Transfer.Transaction){\n//       return Transfer.Transaction(\n//         terms.assetType,\n//         terms.token,\n//         to,\n//         amounts,\n//         data\n//       );\n//     }\n        \n\n\n}",
  "sourcePath": "/Users/DZack/ghost_cf/contracts/Ghost.sol",
  "compiler": {
    "name": "solc",
    "version": "0.4.23+commit.124ca40d.Emscripten.clang"
  },
  "schemaVersion": "2.0.0",
  "updatedAt": "2018-12-13T21:54:29.744Z"
}